{
  "_format": "hh-sol-artifact-1",
  "contractName": "WavePortal",
  "sourceName": "contracts/WavePortal.sol",
  "abi": [
    {
      "inputs": [],
      "stateMutability": "nonpayable",
      "type": "constructor"
    },
    {
      "inputs": [],
      "name": "getTotalWaves",
      "outputs": [
        {
          "internalType": "uint256",
          "name": "",
          "type": "uint256"
        }
      ],
      "stateMutability": "view",
      "type": "function"
    },
    {
      "inputs": [
        {
          "internalType": "address",
          "name": "person",
          "type": "address"
        }
      ],
      "name": "getWavesForPerson",
      "outputs": [
        {
          "internalType": "uint256",
          "name": "",
          "type": "uint256"
        }
      ],
      "stateMutability": "view",
      "type": "function"
    },
    {
      "inputs": [],
      "name": "wave",
      "outputs": [],
      "stateMutability": "nonpayable",
      "type": "function"
    }
  ],
  "bytecode": "0x608060405234801561001057600080fd5b50610334806100206000396000f3fe608060405234801561001057600080fd5b50600436106100415760003560e01c80636fe15b44146100465780639a2cdc0814610050578063e4a9b48a1461006e575b600080fd5b61004e61009e565b005b6100586100b4565b60405161006591906101ce565b60405180910390f35b6100886004803603810190610083919061024c565b6100c5565b60405161009591906101ce565b60405180910390f35b6100b23360006100e290919063ffffffff16565b565b60006100c0600061015b565b905090565b60006100db82600061016990919063ffffffff16565b9050919050565b60018260000160008373ffffffffffffffffffffffffffffffffffffffff1673ffffffffffffffffffffffffffffffffffffffff168152602001908152602001600020600082825461013491906102a8565b92505081905550600182600101600082825461015091906102a8565b925050819055505050565b600081600101549050919050565b60008260000160008373ffffffffffffffffffffffffffffffffffffffff1673ffffffffffffffffffffffffffffffffffffffff16815260200190815260200160002054905092915050565b6000819050919050565b6101c8816101b5565b82525050565b60006020820190506101e360008301846101bf565b92915050565b600080fd5b600073ffffffffffffffffffffffffffffffffffffffff82169050919050565b6000610219826101ee565b9050919050565b6102298161020e565b811461023457600080fd5b50565b60008135905061024681610220565b92915050565b600060208284031215610262576102616101e9565b5b600061027084828501610237565b91505092915050565b7f4e487b7100000000000000000000000000000000000000000000000000000000600052601160045260246000fd5b60006102b3826101b5565b91506102be836101b5565b9250827fffffffffffffffffffffffffffffffffffffffffffffffffffffffffffffffff038211156102f3576102f2610279565b5b82820190509291505056fea26469706673582212203eb9699e109c4f4b1291d34db42c0f3e21bad5f6c4e2884c4a39bd89c1cff77c64736f6c63430008090033",
  "linkReferences": {},
  "deployedLinkReferences": {}
}